{
  "address": "0x99390BE7cf40225ECEB7167CA9E3746eCf6D7e6e",
  "abi": [
    {
      "inputs": [
        {
          "internalType": "uint256[]",
          "name": "_priceTiers",
          "type": "uint256[]"
        },
        {
          "internalType": "address",
          "name": "_to",
          "type": "address"
        }
      ],
      "stateMutability": "nonpayable",
      "type": "constructor"
    },
    {
      "anonymous": false,
      "inputs": [
        {
          "indexed": true,
          "internalType": "address",
          "name": "owner",
          "type": "address"
        },
        {
          "indexed": true,
          "internalType": "address",
          "name": "approved",
          "type": "address"
        },
        {
          "indexed": true,
          "internalType": "uint256",
          "name": "tokenId",
          "type": "uint256"
        }
      ],
      "name": "Approval",
      "type": "event"
    },
    {
      "anonymous": false,
      "inputs": [
        {
          "indexed": true,
          "internalType": "address",
          "name": "owner",
          "type": "address"
        },
        {
          "indexed": true,
          "internalType": "address",
          "name": "operator",
          "type": "address"
        },
        {
          "indexed": false,
          "internalType": "bool",
          "name": "approved",
          "type": "bool"
        }
      ],
      "name": "ApprovalForAll",
      "type": "event"
    },
    {
      "anonymous": false,
      "inputs": [
        {
          "indexed": true,
          "internalType": "address",
          "name": "previousOwner",
          "type": "address"
        },
        {
          "indexed": true,
          "internalType": "address",
          "name": "newOwner",
          "type": "address"
        }
      ],
      "name": "OwnershipTransferred",
      "type": "event"
    },
    {
      "anonymous": false,
      "inputs": [
        {
          "indexed": true,
          "internalType": "address",
          "name": "from",
          "type": "address"
        },
        {
          "indexed": true,
          "internalType": "address",
          "name": "to",
          "type": "address"
        },
        {
          "indexed": true,
          "internalType": "uint256",
          "name": "tokenId",
          "type": "uint256"
        }
      ],
      "name": "Transfer",
      "type": "event"
    },
    {
      "anonymous": false,
      "inputs": [
        {
          "indexed": false,
          "internalType": "address",
          "name": "minter",
          "type": "address"
        },
        {
          "indexed": false,
          "internalType": "address",
          "name": "recip",
          "type": "address"
        },
        {
          "indexed": false,
          "internalType": "uint256",
          "name": "value",
          "type": "uint256"
        },
        {
          "indexed": false,
          "internalType": "uint256",
          "name": "tier",
          "type": "uint256"
        }
      ],
      "name": "UkraineNFTMinted",
      "type": "event"
    },
    {
      "inputs": [],
      "name": "_tokenId",
      "outputs": [
        {
          "internalType": "uint256",
          "name": "",
          "type": "uint256"
        }
      ],
      "stateMutability": "view",
      "type": "function"
    },
    {
      "inputs": [
        {
          "internalType": "address",
          "name": "recip",
          "type": "address"
        }
      ],
      "name": "addRecip",
      "outputs": [],
      "stateMutability": "nonpayable",
      "type": "function"
    },
    {
      "inputs": [
        {
          "internalType": "address",
          "name": "to",
          "type": "address"
        },
        {
          "internalType": "uint256",
          "name": "tokenId",
          "type": "uint256"
        }
      ],
      "name": "approve",
      "outputs": [],
      "stateMutability": "nonpayable",
      "type": "function"
    },
    {
      "inputs": [
        {
          "internalType": "address",
          "name": "owner",
          "type": "address"
        }
      ],
      "name": "balanceOf",
      "outputs": [
        {
          "internalType": "uint256",
          "name": "",
          "type": "uint256"
        }
      ],
      "stateMutability": "view",
      "type": "function"
    },
    {
      "inputs": [],
      "name": "endMint",
      "outputs": [],
      "stateMutability": "nonpayable",
      "type": "function"
    },
    {
      "inputs": [
        {
          "internalType": "uint256",
          "name": "tokenId",
          "type": "uint256"
        }
      ],
      "name": "getApproved",
      "outputs": [
        {
          "internalType": "address",
          "name": "",
          "type": "address"
        }
      ],
      "stateMutability": "view",
      "type": "function"
    },
    {
      "inputs": [],
      "name": "getOwners",
      "outputs": [
        {
          "internalType": "address[]",
          "name": "owners",
          "type": "address[]"
        },
        {
          "internalType": "uint256[]",
          "name": "tiers",
          "type": "uint256[]"
        },
        {
          "internalType": "uint256[]",
          "name": "values",
          "type": "uint256[]"
        }
      ],
      "stateMutability": "view",
      "type": "function"
    },
    {
      "inputs": [
        {
          "internalType": "address",
          "name": "owner",
          "type": "address"
        },
        {
          "internalType": "address",
          "name": "operator",
          "type": "address"
        }
      ],
      "name": "isApprovedForAll",
      "outputs": [
        {
          "internalType": "bool",
          "name": "",
          "type": "bool"
        }
      ],
      "stateMutability": "view",
      "type": "function"
    },
    {
      "inputs": [],
      "name": "isMintable",
      "outputs": [
        {
          "internalType": "bool",
          "name": "",
          "type": "bool"
        }
      ],
      "stateMutability": "view",
      "type": "function"
    },
    {
      "inputs": [
        {
          "internalType": "address",
          "name": "recip",
          "type": "address"
        }
      ],
      "name": "isRecip",
      "outputs": [
        {
          "internalType": "bool",
          "name": "",
          "type": "bool"
        }
      ],
      "stateMutability": "view",
      "type": "function"
    },
    {
      "inputs": [
        {
          "internalType": "address",
          "name": "recip",
          "type": "address"
        }
      ],
      "name": "mint",
      "outputs": [],
      "stateMutability": "payable",
      "type": "function"
    },
    {
      "inputs": [],
      "name": "name",
      "outputs": [
        {
          "internalType": "string",
          "name": "",
          "type": "string"
        }
      ],
      "stateMutability": "view",
      "type": "function"
    },
    {
      "inputs": [],
      "name": "owner",
      "outputs": [
        {
          "internalType": "address",
          "name": "",
          "type": "address"
        }
      ],
      "stateMutability": "view",
      "type": "function"
    },
    {
      "inputs": [
        {
          "internalType": "uint256",
          "name": "tokenId",
          "type": "uint256"
        }
      ],
      "name": "ownerOf",
      "outputs": [
        {
          "internalType": "address",
          "name": "",
          "type": "address"
        }
      ],
      "stateMutability": "view",
      "type": "function"
    },
    {
      "inputs": [
        {
          "internalType": "uint256",
          "name": "",
          "type": "uint256"
        }
      ],
      "name": "priceTiers",
      "outputs": [
        {
          "internalType": "uint256",
          "name": "",
          "type": "uint256"
        }
      ],
      "stateMutability": "view",
      "type": "function"
    },
    {
      "inputs": [
        {
          "internalType": "address",
          "name": "",
          "type": "address"
        }
      ],
      "name": "recips",
      "outputs": [
        {
          "internalType": "uint256",
          "name": "",
          "type": "uint256"
        }
      ],
      "stateMutability": "view",
      "type": "function"
    },
    {
      "inputs": [],
      "name": "renounceOwnership",
      "outputs": [],
      "stateMutability": "nonpayable",
      "type": "function"
    },
    {
      "inputs": [
        {
          "internalType": "address",
          "name": "from",
          "type": "address"
        },
        {
          "internalType": "address",
          "name": "to",
          "type": "address"
        },
        {
          "internalType": "uint256",
          "name": "tokenId",
          "type": "uint256"
        }
      ],
      "name": "safeTransferFrom",
      "outputs": [],
      "stateMutability": "nonpayable",
      "type": "function"
    },
    {
      "inputs": [
        {
          "internalType": "address",
          "name": "from",
          "type": "address"
        },
        {
          "internalType": "address",
          "name": "to",
          "type": "address"
        },
        {
          "internalType": "uint256",
          "name": "tokenId",
          "type": "uint256"
        },
        {
          "internalType": "bytes",
          "name": "_data",
          "type": "bytes"
        }
      ],
      "name": "safeTransferFrom",
      "outputs": [],
      "stateMutability": "nonpayable",
      "type": "function"
    },
    {
      "inputs": [
        {
          "internalType": "address",
          "name": "operator",
          "type": "address"
        },
        {
          "internalType": "bool",
          "name": "approved",
          "type": "bool"
        }
      ],
      "name": "setApprovalForAll",
      "outputs": [],
      "stateMutability": "nonpayable",
      "type": "function"
    },
    {
      "inputs": [
        {
          "internalType": "uint256[]",
          "name": "_priceTiers",
          "type": "uint256[]"
        }
      ],
      "name": "setTiers",
      "outputs": [],
      "stateMutability": "nonpayable",
      "type": "function"
    },
    {
      "inputs": [
        {
          "internalType": "string",
          "name": "tokenURI",
          "type": "string"
        }
      ],
      "name": "startMint",
      "outputs": [],
      "stateMutability": "nonpayable",
      "type": "function"
    },
    {
      "inputs": [
        {
          "internalType": "bytes4",
          "name": "interfaceId",
          "type": "bytes4"
        }
      ],
      "name": "supportsInterface",
      "outputs": [
        {
          "internalType": "bool",
          "name": "",
          "type": "bool"
        }
      ],
      "stateMutability": "view",
      "type": "function"
    },
    {
      "inputs": [],
      "name": "symbol",
      "outputs": [
        {
          "internalType": "string",
          "name": "",
          "type": "string"
        }
      ],
      "stateMutability": "view",
      "type": "function"
    },
    {
      "inputs": [
        {
          "internalType": "uint256",
          "name": "",
          "type": "uint256"
        }
      ],
      "name": "tierMap",
      "outputs": [
        {
          "internalType": "uint256",
          "name": "",
          "type": "uint256"
        }
      ],
      "stateMutability": "view",
      "type": "function"
    },
    {
      "inputs": [
        {
          "internalType": "uint256",
          "name": "tokenId",
          "type": "uint256"
        }
      ],
      "name": "tokenURI",
      "outputs": [
        {
          "internalType": "string",
          "name": "",
          "type": "string"
        }
      ],
      "stateMutability": "view",
      "type": "function"
    },
    {
      "inputs": [
        {
          "internalType": "address",
          "name": "recip",
          "type": "address"
        }
      ],
      "name": "totalDonated",
      "outputs": [
        {
          "internalType": "uint256",
          "name": "",
          "type": "uint256"
        }
      ],
      "stateMutability": "view",
      "type": "function"
    },
    {
      "inputs": [
        {
          "internalType": "address",
          "name": "from",
          "type": "address"
        },
        {
          "internalType": "address",
          "name": "to",
          "type": "address"
        },
        {
          "internalType": "uint256",
          "name": "tokenId",
          "type": "uint256"
        }
      ],
      "name": "transferFrom",
      "outputs": [],
      "stateMutability": "nonpayable",
      "type": "function"
    },
    {
      "inputs": [
        {
          "internalType": "address",
          "name": "newOwner",
          "type": "address"
        }
      ],
      "name": "transferOwnership",
      "outputs": [],
      "stateMutability": "nonpayable",
      "type": "function"
    },
    {
      "inputs": [
        {
          "internalType": "uint256",
          "name": "",
          "type": "uint256"
        }
      ],
      "name": "valueMap",
      "outputs": [
        {
          "internalType": "uint256",
          "name": "",
          "type": "uint256"
        }
      ],
      "stateMutability": "view",
      "type": "function"
    }
  ],
  "transactionHash": "0x58093516fd220e547f144fad0c4c88404f3a8151e0c00f472530de4f74a2713a",
  "args": [
    [
      "51200000000000000",
      "512000000000000000",
      "5120000000000000000"
    ],
    "0x165CD37b4C644C2921454429E7F9358d18A45e14"
  ],
  "numDeployments": 1,
  "solcInputHash": "4e24aee643e22363fad926bd1e69726e",
  "bytecode": "0x60806040526007805460ff60a01b1916905560006008553480156200002357600080fd5b5060405162002ccb38038062002ccb8339810160408190526200004691620004f3565b604080518082018252600a81526920aa2c101e19902aa5a960b11b6020808301918252835180850190945260058452641e19aaa5a960d91b9084015281519192916200009591600091620003dd565b508051620000ab906001906020840190620003dd565b505050620000c8620000c2620000e660201b60201c565b620000ea565b620000d3826200013c565b620000de8162000375565b505062000671565b3390565b600780546001600160a01b038381166001600160a01b0319831681179093556040519116919082907f8be0079c531659141344cd1fd0a4f28419497f9722a3daafe3b4186f6b6457e090600090a35050565b6007546001600160a01b031633146200018b5760405162461bcd60e51b8152602060048201819052602482015260008051602062002cab83398151915260448201526064015b60405180910390fd5b6000815111620001de5760405162461bcd60e51b815260206004820152601d60248201527f6d757374206265206174206c6561737420312070726963652074696572000000604482015260640162000182565b80516001600160401b03811115620001fa57620001fa620004c0565b60405190808252806020026020018201604052801562000224578160200160208202803683370190505b5080516200023b916009916020909101906200046c565b5080600081518110620002525762000252620005d0565b60200260200101516009600081548110620002715762000271620005d0565b60009182526020909120015560015b815181101562000371578162000298600183620005fc565b81518110620002ab57620002ab620005d0565b6020026020010151828281518110620002c857620002c8620005d0565b6020026020010151116200031f5760405162461bcd60e51b815260206004820152601a60248201527f7072696365207469657273206e6f7420617363656e64696e6721000000000000604482015260640162000182565b818181518110620003345762000334620005d0565b602002602001015160098281548110620003525762000352620005d0565b600091825260209091200155620003698162000616565b905062000280565b5050565b6007546001600160a01b03163314620003c05760405162461bcd60e51b8152602060048201819052602482015260008051602062002cab833981519152604482015260640162000182565b6001600160a01b03166000908152600d6020526040902060019055565b828054620003eb9062000634565b90600052602060002090601f0160209004810192826200040f57600085556200045a565b82601f106200042a57805160ff19168380011785556200045a565b828001600101855582156200045a579182015b828111156200045a5782518255916020019190600101906200043d565b5062000468929150620004a9565b5090565b8280548282559060005260206000209081019282156200045a57916020028201828111156200045a5782518255916020019190600101906200043d565b5b80821115620004685760008155600101620004aa565b634e487b7160e01b600052604160045260246000fd5b80516001600160a01b0381168114620004ee57600080fd5b919050565b600080604083850312156200050757600080fd5b82516001600160401b03808211156200051f57600080fd5b818501915085601f8301126200053457600080fd5b81516020828211156200054b576200054b620004c0565b8160051b604051601f19603f83011681018181108682111715620005735762000573620004c0565b6040529283528183019350848101820192898411156200059257600080fd5b948201945b83861015620005b25785518552948201949382019362000597565b9650620005c39050878201620004d6565b9450505050509250929050565b634e487b7160e01b600052603260045260246000fd5b634e487b7160e01b600052601160045260246000fd5b600082821015620006115762000611620005e6565b500390565b60006000198214156200062d576200062d620005e6565b5060010190565b600181811c908216806200064957607f821691505b602082108114156200066b57634e487b7160e01b600052602260045260246000fd5b50919050565b61262a80620006816000396000f3fe6080604052600436106101cd5760003560e01c806370a08231116100f7578063a22cb46511610095578063daae8ba211610064578063daae8ba214610541578063dfcdeb7f1461056e578063e985e9c51461059b578063f2fde38b146105e457600080fd5b8063a22cb465146104a9578063b88d4fde146104c9578063bc0ddf47146104e9578063c87b56dd1461052157600080fd5b80638da5cb5b116100d15780638da5cb5b1461043257806390dcbeff1461045057806395d89b4114610470578063a0e67e2b1461048557600080fd5b806370a08231146103dd578063715018a6146103fd57806382b670e41461041257600080fd5b8063248225141161016f57806349db9be11161013e57806349db9be11461035d5780636352211e1461038a578063639d6923146103aa5780636a627842146103ca57600080fd5b806324822514146102e657806339daaee8146102fc57806342842e0e1461031c57806346b45af71461033c57600080fd5b8063081812fc116101ab578063081812fc14610240578063095ea7b3146102785780630f3a1d471461029857806323b872dd146102c657600080fd5b8063017043a5146101d257806301ffc9a7146101e957806306fdde031461021e575b600080fd5b3480156101de57600080fd5b506101e7610604565b005b3480156101f557600080fd5b50610209610204366004611e70565b610646565b60405190151581526020015b60405180910390f35b34801561022a57600080fd5b50610233610698565b6040516102159190611ee5565b34801561024c57600080fd5b5061026061025b366004611ef8565b61072a565b6040516001600160a01b039091168152602001610215565b34801561028457600080fd5b506101e7610293366004611f2d565b6107b2565b3480156102a457600080fd5b506102b86102b3366004611f57565b6108c8565b604051908152602001610215565b3480156102d257600080fd5b506101e76102e1366004611f72565b610947565b3480156102f257600080fd5b506102b860085481565b34801561030857600080fd5b506101e7610317366004611f57565b610978565b34801561032857600080fd5b506101e7610337366004611f72565b6109bf565b34801561034857600080fd5b5060075461020990600160a01b900460ff1681565b34801561036957600080fd5b506102b8610378366004611f57565b600d6020526000908152604090205481565b34801561039657600080fd5b506102606103a5366004611ef8565b6109da565b3480156103b657600080fd5b506101e76103c536600461204d565b610a51565b6101e76103d8366004611f57565b610aa5565b3480156103e957600080fd5b506102b86103f8366004611f57565b610ca1565b34801561040957600080fd5b506101e7610d28565b34801561041e57600080fd5b506101e761042d366004612096565b610d5e565b34801561043e57600080fd5b506007546001600160a01b0316610260565b34801561045c57600080fd5b506102b861046b366004611ef8565b610f51565b34801561047c57600080fd5b50610233610f72565b34801561049157600080fd5b5061049a610f81565b60405161021593929190612177565b3480156104b557600080fd5b506101e76104c43660046121ec565b61112c565b3480156104d557600080fd5b506101e76104e4366004612228565b611137565b3480156104f557600080fd5b50610209610504366004611f57565b6001600160a01b03166000908152600d6020526040902054151590565b34801561052d57600080fd5b5061023361053c366004611ef8565b61116f565b34801561054d57600080fd5b506102b861055c366004611ef8565b600c6020526000908152604090205481565b34801561057a57600080fd5b506102b8610589366004611ef8565b600b6020526000908152604090205481565b3480156105a757600080fd5b506102096105b63660046122a4565b6001600160a01b03918216600090815260056020908152604080832093909416825291909152205460ff1690565b3480156105f057600080fd5b506101e76105ff366004611f57565b6112e6565b6007546001600160a01b031633146106375760405162461bcd60e51b815260040161062e906122d7565b60405180910390fd5b6007805460ff60a01b19169055565b60006001600160e01b031982166380ac58cd60e01b148061067757506001600160e01b03198216635b5e139f60e01b145b8061069257506301ffc9a760e01b6001600160e01b03198316145b92915050565b6060600080546106a79061230c565b80601f01602080910402602001604051908101604052809291908181526020018280546106d39061230c565b80156107205780601f106106f557610100808354040283529160200191610720565b820191906000526020600020905b81548152906001019060200180831161070357829003601f168201915b5050505050905090565b600061073582611381565b6107965760405162461bcd60e51b815260206004820152602c60248201527f4552433732313a20617070726f76656420717565727920666f72206e6f6e657860448201526b34b9ba32b73a103a37b5b2b760a11b606482015260840161062e565b506000908152600460205260409020546001600160a01b031690565b60006107bd826109da565b9050806001600160a01b0316836001600160a01b0316141561082b5760405162461bcd60e51b815260206004820152602160248201527f4552433732313a20617070726f76616c20746f2063757272656e74206f776e656044820152603960f91b606482015260840161062e565b336001600160a01b0382161480610847575061084781336105b6565b6108b95760405162461bcd60e51b815260206004820152603860248201527f4552433732313a20617070726f76652063616c6c6572206973206e6f74206f7760448201527f6e6572206e6f7220617070726f76656420666f7220616c6c0000000000000000606482015260840161062e565b6108c3838361139e565b505050565b6001600160a01b0381166000908152600d60205260408120546109225760405162461bcd60e51b8152602060048201526012602482015271696e76616c696420726563697069656e742160701b604482015260640161062e565b6001600160a01b0382166000908152600d60205260409020546106929060019061235d565b610951338261140c565b61096d5760405162461bcd60e51b815260040161062e90612374565b6108c38383836114f2565b6007546001600160a01b031633146109a25760405162461bcd60e51b815260040161062e906122d7565b6001600160a01b03166000908152600d6020526040902060019055565b6108c383838360405180602001604052806000815250611137565b6000818152600260205260408120546001600160a01b0316806106925760405162461bcd60e51b815260206004820152602960248201527f4552433732313a206f776e657220717565727920666f72206e6f6e657869737460448201526832b73a103a37b5b2b760b91b606482015260840161062e565b6007546001600160a01b03163314610a7b5760405162461bcd60e51b815260040161062e906122d7565b8051610a8e90600a906020840190611d87565b50506007805460ff60a01b1916600160a01b179055565b600754600160a01b900460ff161515600114610afa5760405162461bcd60e51b81526020600482015260146024820152736d696e74696e67206e6f7420737461727465642160601b604482015260640161062e565b6001600160a01b0381166000908152600d6020526040902054610b5f5760405162461bcd60e51b815260206004820152601a60248201527f726563697069656e74206e6f742077686974656c697374656421000000000000604482015260640161062e565b6000610b6a34611692565b9050600160086000828254610b7f91906123c5565b92505081905550610b9233600854611754565b610bc8600854600a610ba38461176e565b604051602001610bb49291906123f9565b60405160208183030381529060405261186c565b6040516001600160a01b038316903480156108fc02916000818181858888f19350505050158015610bfd573d6000803e3d6000fd5b50600880546000908152600b6020908152604080832085905592548252600c815282822034908190556001600160a01b0386168352600d9091529181208054909190610c4a9084906123c5565b9091555050604080513381526001600160a01b038416602082015234818301526060810183905290517f246d6bee23a8a0c8daf1c72f7696c774498350e7cd91d73644c79f613b1870da9181900360800190a15050565b60006001600160a01b038216610d0c5760405162461bcd60e51b815260206004820152602a60248201527f4552433732313a2062616c616e636520717565727920666f7220746865207a65604482015269726f206164647265737360b01b606482015260840161062e565b506001600160a01b031660009081526003602052604090205490565b6007546001600160a01b03163314610d525760405162461bcd60e51b815260040161062e906122d7565b610d5c60006118f7565b565b6007546001600160a01b03163314610d885760405162461bcd60e51b815260040161062e906122d7565b6000815111610dd95760405162461bcd60e51b815260206004820152601d60248201527f6d757374206265206174206c6561737420312070726963652074696572000000604482015260640161062e565b805167ffffffffffffffff811115610df357610df3611fae565b604051908082528060200260200182016040528015610e1c578160200160208202803683370190505b508051610e3191600991602090910190611e0b565b5080600081518110610e4557610e456124b4565b60200260200101516009600081548110610e6157610e616124b4565b60009182526020909120015560015b8151811015610f4d5781610e8560018361235d565b81518110610e9557610e956124b4565b6020026020010151828281518110610eaf57610eaf6124b4565b602002602001015111610f045760405162461bcd60e51b815260206004820152601a60248201527f7072696365207469657273206e6f7420617363656e64696e6721000000000000604482015260640161062e565b818181518110610f1657610f166124b4565b602002602001015160098281548110610f3157610f316124b4565b600091825260209091200155610f46816124ca565b9050610e70565b5050565b60098181548110610f6157600080fd5b600091825260209091200154905081565b6060600180546106a79061230c565b606080606060085467ffffffffffffffff811115610fa157610fa1611fae565b604051908082528060200260200182016040528015610fca578160200160208202803683370190505b50925060085467ffffffffffffffff811115610fe857610fe8611fae565b604051908082528060200260200182016040528015611011578160200160208202803683370190505b50915060085467ffffffffffffffff81111561102f5761102f611fae565b604051908082528060200260200182016040528015611058578160200160208202803683370190505b50905060005b600854811015611126576110766103a58260016123c5565b848281518110611088576110886124b4565b6001600160a01b0390921660209283029190910190910152600b60006110af8360016123c5565b8152602001908152602001600020548382815181106110d0576110d06124b4565b6020908102919091010152600c60006110ea8360016123c5565b81526020019081526020016000205482828151811061110b5761110b6124b4565b602090810291909101015261111f816124ca565b905061105e565b50909192565b610f4d338383611949565b611141338361140c565b61115d5760405162461bcd60e51b815260040161062e90612374565b61116984848484611a18565b50505050565b606061117a82611381565b6111e05760405162461bcd60e51b815260206004820152603160248201527f45524337323155524953746f726167653a2055524920717565727920666f72206044820152703737b732bc34b9ba32b73a103a37b5b2b760791b606482015260840161062e565b600082815260066020526040812080546111f99061230c565b80601f01602080910402602001604051908101604052809291908181526020018280546112259061230c565b80156112725780601f1061124757610100808354040283529160200191611272565b820191906000526020600020905b81548152906001019060200180831161125557829003601f168201915b50505050509050600061129060408051602081019091526000815290565b90508051600014156112a3575092915050565b8151156112d55780826040516020016112bd9291906124e5565b60405160208183030381529060405292505050919050565b6112de84611a4b565b949350505050565b6007546001600160a01b031633146113105760405162461bcd60e51b815260040161062e906122d7565b6001600160a01b0381166113755760405162461bcd60e51b815260206004820152602660248201527f4f776e61626c653a206e6577206f776e657220697320746865207a65726f206160448201526564647265737360d01b606482015260840161062e565b61137e816118f7565b50565b6000908152600260205260409020546001600160a01b0316151590565b600081815260046020526040902080546001600160a01b0319166001600160a01b03841690811790915581906113d3826109da565b6001600160a01b03167f8c5be1e5ebec7d5bd14f71427d1e84f3dd0314c0f7b2291e5b200ac8c7c3b92560405160405180910390a45050565b600061141782611381565b6114785760405162461bcd60e51b815260206004820152602c60248201527f4552433732313a206f70657261746f7220717565727920666f72206e6f6e657860448201526b34b9ba32b73a103a37b5b2b760a11b606482015260840161062e565b6000611483836109da565b9050806001600160a01b0316846001600160a01b031614806114be5750836001600160a01b03166114b38461072a565b6001600160a01b0316145b806112de57506001600160a01b0380821660009081526005602090815260408083209388168352929052205460ff166112de565b826001600160a01b0316611505826109da565b6001600160a01b03161461156d5760405162461bcd60e51b815260206004820152602960248201527f4552433732313a207472616e73666572206f6620746f6b656e2074686174206960448201526839903737ba1037bbb760b91b606482015260840161062e565b6001600160a01b0382166115cf5760405162461bcd60e51b8152602060048201526024808201527f4552433732313a207472616e7366657220746f20746865207a65726f206164646044820152637265737360e01b606482015260840161062e565b6115da60008261139e565b6001600160a01b038316600090815260036020526040812080546001929061160390849061235d565b90915550506001600160a01b03821660009081526003602052604081208054600192906116319084906123c5565b909155505060008181526002602052604080822080546001600160a01b0319166001600160a01b0386811691821790925591518493918716917fddf252ad1be2c89b69c2b068fc378daa952ba7f163c4a11628f55a4df523b3ef91a4505050565b600060096000815481106116a8576116a86124b4565b90600052602060002001548210156117025760405162461bcd60e51b815260206004820152601f60248201527f76616c756520736d616c6c6572207468616e206c6f7765737420746965722100604482015260640161062e565b6000805b60095481101561174d5760098181548110611723576117236124b4565b906000526020600020015484101561173a5761174d565b905080611746816124ca565b9050611706565b5092915050565b610f4d828260405180602001604052806000815250611b23565b6060816117925750506040805180820190915260018152600360fc1b602082015290565b8160005b81156117bc57806117a6816124ca565b91506117b59050600a8361252a565b9150611796565b60008167ffffffffffffffff8111156117d7576117d7611fae565b6040519080825280601f01601f191660200182016040528015611801576020820181803683370190505b5090505b84156112de5761181660018361235d565b9150611823600a8661253e565b61182e9060306123c5565b60f81b818381518110611843576118436124b4565b60200101906001600160f81b031916908160001a905350611865600a8661252a565b9450611805565b61187582611381565b6118d85760405162461bcd60e51b815260206004820152602e60248201527f45524337323155524953746f726167653a2055524920736574206f66206e6f6e60448201526d32bc34b9ba32b73a103a37b5b2b760911b606482015260840161062e565b600082815260066020908152604090912082516108c392840190611d87565b600780546001600160a01b038381166001600160a01b0319831681179093556040519116919082907f8be0079c531659141344cd1fd0a4f28419497f9722a3daafe3b4186f6b6457e090600090a35050565b816001600160a01b0316836001600160a01b031614156119ab5760405162461bcd60e51b815260206004820152601960248201527f4552433732313a20617070726f766520746f2063616c6c657200000000000000604482015260640161062e565b6001600160a01b03838116600081815260056020908152604080832094871680845294825291829020805460ff191686151590811790915591519182527f17307eab39ab6107e8899845ad3d59bd9653f200f220920489ca2b5937696c31910160405180910390a3505050565b611a238484846114f2565b611a2f84848484611b56565b6111695760405162461bcd60e51b815260040161062e90612552565b6060611a5682611381565b611aba5760405162461bcd60e51b815260206004820152602f60248201527f4552433732314d657461646174613a2055524920717565727920666f72206e6f60448201526e3732bc34b9ba32b73a103a37b5b2b760891b606482015260840161062e565b6000611ad160408051602081019091526000815290565b90506000815111611af15760405180602001604052806000815250611b1c565b80611afb8461176e565b604051602001611b0c9291906124e5565b6040516020818303038152906040525b9392505050565b611b2d8383611c54565b611b3a6000848484611b56565b6108c35760405162461bcd60e51b815260040161062e90612552565b60006001600160a01b0384163b15611c4957604051630a85bd0160e11b81526001600160a01b0385169063150b7a0290611b9a9033908990889088906004016125a4565b6020604051808303816000875af1925050508015611bd5575060408051601f3d908101601f19168201909252611bd2918101906125d7565b60015b611c2f573d808015611c03576040519150601f19603f3d011682016040523d82523d6000602084013e611c08565b606091505b508051611c275760405162461bcd60e51b815260040161062e90612552565b805181602001fd5b6001600160e01b031916630a85bd0160e11b1490506112de565b506001949350505050565b6001600160a01b038216611caa5760405162461bcd60e51b815260206004820181905260248201527f4552433732313a206d696e7420746f20746865207a65726f2061646472657373604482015260640161062e565b611cb381611381565b15611d005760405162461bcd60e51b815260206004820152601c60248201527f4552433732313a20746f6b656e20616c7265616479206d696e74656400000000604482015260640161062e565b6001600160a01b0382166000908152600360205260408120805460019290611d299084906123c5565b909155505060008181526002602052604080822080546001600160a01b0319166001600160a01b03861690811790915590518392907fddf252ad1be2c89b69c2b068fc378daa952ba7f163c4a11628f55a4df523b3ef908290a45050565b828054611d939061230c565b90600052602060002090601f016020900481019282611db55760008555611dfb565b82601f10611dce57805160ff1916838001178555611dfb565b82800160010185558215611dfb579182015b82811115611dfb578251825591602001919060010190611de0565b50611e07929150611e45565b5090565b828054828255906000526020600020908101928215611dfb5791602002820182811115611dfb578251825591602001919060010190611de0565b5b80821115611e075760008155600101611e46565b6001600160e01b03198116811461137e57600080fd5b600060208284031215611e8257600080fd5b8135611b1c81611e5a565b60005b83811015611ea8578181015183820152602001611e90565b838111156111695750506000910152565b60008151808452611ed1816020860160208601611e8d565b601f01601f19169290920160200192915050565b602081526000611b1c6020830184611eb9565b600060208284031215611f0a57600080fd5b5035919050565b80356001600160a01b0381168114611f2857600080fd5b919050565b60008060408385031215611f4057600080fd5b611f4983611f11565b946020939093013593505050565b600060208284031215611f6957600080fd5b611b1c82611f11565b600080600060608486031215611f8757600080fd5b611f9084611f11565b9250611f9e60208501611f11565b9150604084013590509250925092565b634e487b7160e01b600052604160045260246000fd5b604051601f8201601f1916810167ffffffffffffffff81118282101715611fed57611fed611fae565b604052919050565b600067ffffffffffffffff83111561200f5761200f611fae565b612022601f8401601f1916602001611fc4565b905082815283838301111561203657600080fd5b828260208301376000602084830101529392505050565b60006020828403121561205f57600080fd5b813567ffffffffffffffff81111561207657600080fd5b8201601f8101841361208757600080fd5b6112de84823560208401611ff5565b600060208083850312156120a957600080fd5b823567ffffffffffffffff808211156120c157600080fd5b818501915085601f8301126120d557600080fd5b8135818111156120e7576120e7611fae565b8060051b91506120f8848301611fc4565b818152918301840191848101908884111561211257600080fd5b938501935b8385101561213057843582529385019390850190612117565b98975050505050505050565b600081518084526020808501945080840160005b8381101561216c57815187529582019590820190600101612150565b509495945050505050565b606080825284519082018190526000906020906080840190828801845b828110156121b95781516001600160a01b031684529284019290840190600101612194565b505050838103828501526121cd818761213c565b91505082810360408401526121e2818561213c565b9695505050505050565b600080604083850312156121ff57600080fd5b61220883611f11565b91506020830135801515811461221d57600080fd5b809150509250929050565b6000806000806080858703121561223e57600080fd5b61224785611f11565b935061225560208601611f11565b925060408501359150606085013567ffffffffffffffff81111561227857600080fd5b8501601f8101871361228957600080fd5b61229887823560208401611ff5565b91505092959194509250565b600080604083850312156122b757600080fd5b6122c083611f11565b91506122ce60208401611f11565b90509250929050565b6020808252818101527f4f776e61626c653a2063616c6c6572206973206e6f7420746865206f776e6572604082015260600190565b600181811c9082168061232057607f821691505b6020821081141561234157634e487b7160e01b600052602260045260246000fd5b50919050565b634e487b7160e01b600052601160045260246000fd5b60008282101561236f5761236f612347565b500390565b60208082526031908201527f4552433732313a207472616e736665722063616c6c6572206973206e6f74206f6040820152701ddb995c881b9bdc88185c1c1c9bdd9959607a1b606082015260800190565b600082198211156123d8576123d8612347565b500190565b600081516123ef818560208601611e8d565b9290920192915050565b600080845481600182811c91508083168061241557607f831692505b602080841082141561243557634e487b7160e01b86526022600452602486fd5b818015612449576001811461245a57612487565b60ff19861689528489019650612487565b60008b81526020902060005b8681101561247f5781548b820152908501908301612466565b505084890196505b5050505050506124ab61249a82866123dd565b64173539b7b760d91b815260050190565b95945050505050565b634e487b7160e01b600052603260045260246000fd5b60006000198214156124de576124de612347565b5060010190565b600083516124f7818460208801611e8d565b83519083019061250b818360208801611e8d565b01949350505050565b634e487b7160e01b600052601260045260246000fd5b60008261253957612539612514565b500490565b60008261254d5761254d612514565b500690565b60208082526032908201527f4552433732313a207472616e7366657220746f206e6f6e20455243373231526560408201527131b2b4bb32b91034b6b83632b6b2b73a32b960711b606082015260800190565b6001600160a01b03858116825284166020820152604081018390526080606082018190526000906121e290830184611eb9565b6000602082840312156125e957600080fd5b8151611b1c81611e5a56fea2646970667358221220bb4bbbb88d338b5d1b37217406bfe025b86778519c84aecc9e5978f98a59ae3364736f6c634300080c00334f776e61626c653a2063616c6c6572206973206e6f7420746865206f776e6572",
  "libraries": {},
  "devdoc": {
    "kind": "dev",
    "methods": {
      "approve(address,uint256)": {
        "details": "See {IERC721-approve}."
      },
      "balanceOf(address)": {
        "details": "See {IERC721-balanceOf}."
      },
      "getApproved(uint256)": {
        "details": "See {IERC721-getApproved}."
      },
      "isApprovedForAll(address,address)": {
        "details": "See {IERC721-isApprovedForAll}."
      },
      "name()": {
        "details": "See {IERC721Metadata-name}."
      },
      "owner()": {
        "details": "Returns the address of the current owner."
      },
      "ownerOf(uint256)": {
        "details": "See {IERC721-ownerOf}."
      },
      "renounceOwnership()": {
        "details": "Leaves the contract without owner. It will not be possible to call `onlyOwner` functions anymore. Can only be called by the current owner. NOTE: Renouncing ownership will leave the contract without an owner, thereby removing any functionality that is only available to the owner."
      },
      "safeTransferFrom(address,address,uint256)": {
        "details": "See {IERC721-safeTransferFrom}."
      },
      "safeTransferFrom(address,address,uint256,bytes)": {
        "details": "See {IERC721-safeTransferFrom}."
      },
      "setApprovalForAll(address,bool)": {
        "details": "See {IERC721-setApprovalForAll}."
      },
      "supportsInterface(bytes4)": {
        "details": "See {IERC165-supportsInterface}."
      },
      "symbol()": {
        "details": "See {IERC721Metadata-symbol}."
      },
      "tokenURI(uint256)": {
        "details": "See {IERC721Metadata-tokenURI}."
      },
      "transferFrom(address,address,uint256)": {
        "details": "See {IERC721-transferFrom}."
      },
      "transferOwnership(address)": {
        "details": "Transfers ownership of the contract to a new account (`newOwner`). Can only be called by the current owner."
      }
    },
    "version": 1
  },
  "userdoc": {
    "kind": "user",
    "methods": {},
    "version": 1
  },
  "storageLayout": {
    "storage": [
      {
        "astId": 130,
        "contract": "contracts/ATXDAOUkraineNFT.sol:ATXDAOUkraineNFT",
        "label": "_name",
        "offset": 0,
        "slot": "0",
        "type": "t_string_storage"
      },
      {
        "astId": 132,
        "contract": "contracts/ATXDAOUkraineNFT.sol:ATXDAOUkraineNFT",
        "label": "_symbol",
        "offset": 0,
        "slot": "1",
        "type": "t_string_storage"
      },
      {
        "astId": 136,
        "contract": "contracts/ATXDAOUkraineNFT.sol:ATXDAOUkraineNFT",
        "label": "_owners",
        "offset": 0,
        "slot": "2",
        "type": "t_mapping(t_uint256,t_address)"
      },
      {
        "astId": 140,
        "contract": "contracts/ATXDAOUkraineNFT.sol:ATXDAOUkraineNFT",
        "label": "_balances",
        "offset": 0,
        "slot": "3",
        "type": "t_mapping(t_address,t_uint256)"
      },
      {
        "astId": 144,
        "contract": "contracts/ATXDAOUkraineNFT.sol:ATXDAOUkraineNFT",
        "label": "_tokenApprovals",
        "offset": 0,
        "slot": "4",
        "type": "t_mapping(t_uint256,t_address)"
      },
      {
        "astId": 150,
        "contract": "contracts/ATXDAOUkraineNFT.sol:ATXDAOUkraineNFT",
        "label": "_operatorApprovals",
        "offset": 0,
        "slot": "5",
        "type": "t_mapping(t_address,t_mapping(t_address,t_bool))"
      },
      {
        "astId": 1420,
        "contract": "contracts/ATXDAOUkraineNFT.sol:ATXDAOUkraineNFT",
        "label": "_tokenURIs",
        "offset": 0,
        "slot": "6",
        "type": "t_mapping(t_uint256,t_string_storage)"
      },
      {
        "astId": 7,
        "contract": "contracts/ATXDAOUkraineNFT.sol:ATXDAOUkraineNFT",
        "label": "_owner",
        "offset": 0,
        "slot": "7",
        "type": "t_address"
      },
      {
        "astId": 2167,
        "contract": "contracts/ATXDAOUkraineNFT.sol:ATXDAOUkraineNFT",
        "label": "isMintable",
        "offset": 20,
        "slot": "7",
        "type": "t_bool"
      },
      {
        "astId": 2170,
        "contract": "contracts/ATXDAOUkraineNFT.sol:ATXDAOUkraineNFT",
        "label": "_tokenId",
        "offset": 0,
        "slot": "8",
        "type": "t_uint256"
      },
      {
        "astId": 2173,
        "contract": "contracts/ATXDAOUkraineNFT.sol:ATXDAOUkraineNFT",
        "label": "priceTiers",
        "offset": 0,
        "slot": "9",
        "type": "t_array(t_uint256)dyn_storage"
      },
      {
        "astId": 2175,
        "contract": "contracts/ATXDAOUkraineNFT.sol:ATXDAOUkraineNFT",
        "label": "baseURI",
        "offset": 0,
        "slot": "10",
        "type": "t_string_storage"
      },
      {
        "astId": 2179,
        "contract": "contracts/ATXDAOUkraineNFT.sol:ATXDAOUkraineNFT",
        "label": "tierMap",
        "offset": 0,
        "slot": "11",
        "type": "t_mapping(t_uint256,t_uint256)"
      },
      {
        "astId": 2183,
        "contract": "contracts/ATXDAOUkraineNFT.sol:ATXDAOUkraineNFT",
        "label": "valueMap",
        "offset": 0,
        "slot": "12",
        "type": "t_mapping(t_uint256,t_uint256)"
      },
      {
        "astId": 2187,
        "contract": "contracts/ATXDAOUkraineNFT.sol:ATXDAOUkraineNFT",
        "label": "recips",
        "offset": 0,
        "slot": "13",
        "type": "t_mapping(t_address,t_uint256)"
      }
    ],
    "types": {
      "t_address": {
        "encoding": "inplace",
        "label": "address",
        "numberOfBytes": "20"
      },
      "t_array(t_uint256)dyn_storage": {
        "base": "t_uint256",
        "encoding": "dynamic_array",
        "label": "uint256[]",
        "numberOfBytes": "32"
      },
      "t_bool": {
        "encoding": "inplace",
        "label": "bool",
        "numberOfBytes": "1"
      },
      "t_mapping(t_address,t_bool)": {
        "encoding": "mapping",
        "key": "t_address",
        "label": "mapping(address => bool)",
        "numberOfBytes": "32",
        "value": "t_bool"
      },
      "t_mapping(t_address,t_mapping(t_address,t_bool))": {
        "encoding": "mapping",
        "key": "t_address",
        "label": "mapping(address => mapping(address => bool))",
        "numberOfBytes": "32",
        "value": "t_mapping(t_address,t_bool)"
      },
      "t_mapping(t_address,t_uint256)": {
        "encoding": "mapping",
        "key": "t_address",
        "label": "mapping(address => uint256)",
        "numberOfBytes": "32",
        "value": "t_uint256"
      },
      "t_mapping(t_uint256,t_address)": {
        "encoding": "mapping",
        "key": "t_uint256",
        "label": "mapping(uint256 => address)",
        "numberOfBytes": "32",
        "value": "t_address"
      },
      "t_mapping(t_uint256,t_string_storage)": {
        "encoding": "mapping",
        "key": "t_uint256",
        "label": "mapping(uint256 => string)",
        "numberOfBytes": "32",
        "value": "t_string_storage"
      },
      "t_mapping(t_uint256,t_uint256)": {
        "encoding": "mapping",
        "key": "t_uint256",
        "label": "mapping(uint256 => uint256)",
        "numberOfBytes": "32",
        "value": "t_uint256"
      },
      "t_string_storage": {
        "encoding": "bytes",
        "label": "string",
        "numberOfBytes": "32"
      },
      "t_uint256": {
        "encoding": "inplace",
        "label": "uint256",
        "numberOfBytes": "32"
      }
    }
  }
}